{
  "contractName": "Funder",
  "abi": [
    {
      "inputs": [],
      "name": "numOfFunders",
      "outputs": [
        {
          "internalType": "uint256",
          "name": "",
          "type": "uint256"
        }
      ],
      "stateMutability": "view",
      "type": "function"
    },
    {
      "stateMutability": "payable",
      "type": "receive"
    },
    {
      "inputs": [],
      "name": "transfer",
      "outputs": [],
      "stateMutability": "payable",
      "type": "function"
    },
    {
      "inputs": [
        {
          "internalType": "uint256",
          "name": "withdrawAmount",
          "type": "uint256"
        }
      ],
      "name": "withdraw",
      "outputs": [],
      "stateMutability": "nonpayable",
      "type": "function"
    },
    {
      "inputs": [],
      "name": "getContractBalance",
      "outputs": [
        {
          "internalType": "uint256",
          "name": "",
          "type": "uint256"
        }
      ],
      "stateMutability": "view",
      "type": "function"
    }
  ],
  "bytecode": "0x608060405234801561001057600080fd5b5061033b806100206000396000f3fe6080604052600436106100435760003560e01c80632e1a7d4d1461004f5780636f9fb98a146100785780638a4068dd146100a3578063af7f2c9b146100ad5761004a565b3661004a57005b600080fd5b34801561005b57600080fd5b506100766004803603810190610071919061020b565b6100d8565b005b34801561008457600080fd5b5061008d61016d565b60405161009a9190610247565b60405180910390f35b6100ab610175565b005b3480156100b957600080fd5b506100c26101ca565b6040516100cf9190610247565b60405180910390f35b671bc16d674ec80000811115610123576040517f08c379a000000000000000000000000000000000000000000000000000000000815260040161011a906102e5565b60405180910390fd5b3373ffffffffffffffffffffffffffffffffffffffff166108fc829081150290604051600060405180830381858888f19350505050158015610169573d6000803e3d6000fd5b5050565b600047905090565b33600160008054815260200190815260200160002060006101000a81548173ffffffffffffffffffffffffffffffffffffffff021916908373ffffffffffffffffffffffffffffffffffffffff160217905550565b60005481565b600080fd5b6000819050919050565b6101e8816101d5565b81146101f357600080fd5b50565b600081359050610205816101df565b92915050565b600060208284031215610221576102206101d0565b5b600061022f848285016101f6565b91505092915050565b610241816101d5565b82525050565b600060208201905061025c6000830184610238565b92915050565b600082825260208201905092915050565b7f43616e6e6f74207769746864726177206d6f7265207468616e2032206574686560008201527f7200000000000000000000000000000000000000000000000000000000000000602082015250565b60006102cf602183610262565b91506102da82610273565b604082019050919050565b600060208201905081810360008301526102fe816102c2565b905091905056fea26469706673582212202a47260389ba5a05b97df42ed9631dac8f66a43d5a208b8d2d66ad42b969aa9664736f6c634300080a0033",
  "immutableReferences": {},
  "source": "// SPDX-License-Identifier: MIT\r\npragma solidity ^0.8.7;\r\n\r\ncontract Funder {\r\n    uint256 public numOfFunders;\r\n\r\n    mapping(uint256 => address) private funders;\r\n\r\n    receive() external payable {}\r\n\r\n    function transfer() external payable {\r\n        funders[numOfFunders] = msg.sender;\r\n    }\r\n\r\n    function withdraw(uint256 withdrawAmount) external {\r\n        require(\r\n            withdrawAmount <= 2000000000000000000,\r\n            \"Cannot withdraw more than 2 ether\"\r\n        );\r\n        payable(msg.sender).transfer(withdrawAmount);\r\n    }\r\n\r\n    function getContractBalance() public view returns (uint256) {\r\n        return address(this).balance;\r\n    }\r\n}\r\n",
  "sourcePath": "C:\\code bloks programs\\dapp_learning\\Nextjs-Box\\contracts\\Funder.sol",
  "compiler": {
    "name": "solc",
    "version": "0.8.10+commit.fc410830.Emscripten.clang"
  },
  "schemaVersion": "3.4.4",
  "updatedAt": "2022-04-02T09:50:45.293Z",
  "devdoc": {
    "kind": "dev",
    "methods": {},
    "version": 1
  },
  "userdoc": {
    "kind": "user",
    "methods": {},
    "version": 1
  }
}